{
  "_format": "hh-sol-artifact-1",
  "contractName": "BridgeA",
  "sourceName": "contracts/BridgeA.sol",
  "abi": [
    {
      "inputs": [
        {
          "internalType": "address",
          "name": "_token",
          "type": "address"
        },
        {
          "internalType": "address",
          "name": "_validator",
          "type": "address"
        },
        {
          "internalType": "address",
          "name": "_relayer",
          "type": "address"
        }
      ],
      "stateMutability": "nonpayable",
      "type": "constructor"
    },
    {
      "inputs": [],
      "name": "ECDSAInvalidSignature",
      "type": "error"
    },
    {
      "inputs": [
        {
          "internalType": "uint256",
          "name": "length",
          "type": "uint256"
        }
      ],
      "name": "ECDSAInvalidSignatureLength",
      "type": "error"
    },
    {
      "inputs": [
        {
          "internalType": "bytes32",
          "name": "s",
          "type": "bytes32"
        }
      ],
      "name": "ECDSAInvalidSignatureS",
      "type": "error"
    },
    {
      "anonymous": false,
      "inputs": [
        {
          "indexed": true,
          "internalType": "address",
          "name": "user",
          "type": "address"
        },
        {
          "indexed": false,
          "internalType": "uint256",
          "name": "amount",
          "type": "uint256"
        },
        {
          "indexed": false,
          "internalType": "uint256",
          "name": "nonce",
          "type": "uint256"
        }
      ],
      "name": "Locked",
      "type": "event"
    },
    {
      "anonymous": false,
      "inputs": [
        {
          "indexed": true,
          "internalType": "address",
          "name": "user",
          "type": "address"
        },
        {
          "indexed": false,
          "internalType": "uint256",
          "name": "amount",
          "type": "uint256"
        },
        {
          "indexed": false,
          "internalType": "uint256",
          "name": "nonce",
          "type": "uint256"
        }
      ],
      "name": "Released",
      "type": "event"
    },
    {
      "inputs": [],
      "name": "globalNonce",
      "outputs": [
        {
          "internalType": "uint256",
          "name": "",
          "type": "uint256"
        }
      ],
      "stateMutability": "view",
      "type": "function"
    },
    {
      "inputs": [
        {
          "internalType": "uint256",
          "name": "amount",
          "type": "uint256"
        }
      ],
      "name": "lock",
      "outputs": [],
      "stateMutability": "nonpayable",
      "type": "function"
    },
    {
      "inputs": [
        {
          "internalType": "uint256",
          "name": "",
          "type": "uint256"
        }
      ],
      "name": "processedNonces",
      "outputs": [
        {
          "internalType": "bool",
          "name": "",
          "type": "bool"
        }
      ],
      "stateMutability": "view",
      "type": "function"
    },
    {
      "inputs": [],
      "name": "relayer",
      "outputs": [
        {
          "internalType": "address",
          "name": "",
          "type": "address"
        }
      ],
      "stateMutability": "view",
      "type": "function"
    },
    {
      "inputs": [
        {
          "internalType": "address",
          "name": "user",
          "type": "address"
        },
        {
          "internalType": "uint256",
          "name": "amount",
          "type": "uint256"
        },
        {
          "internalType": "uint256",
          "name": "nonce",
          "type": "uint256"
        },
        {
          "internalType": "bytes",
          "name": "signature",
          "type": "bytes"
        }
      ],
      "name": "release",
      "outputs": [],
      "stateMutability": "nonpayable",
      "type": "function"
    },
    {
      "inputs": [],
      "name": "token",
      "outputs": [
        {
          "internalType": "contract IERC20",
          "name": "",
          "type": "address"
        }
      ],
      "stateMutability": "view",
      "type": "function"
    },
    {
      "inputs": [],
      "name": "validator",
      "outputs": [
        {
          "internalType": "address",
          "name": "",
          "type": "address"
        }
      ],
      "stateMutability": "view",
      "type": "function"
    }
  ],
  "bytecode": "0x60806040523480156200001157600080fd5b50604051620013103803806200131083398181016040528101906200003791906200016c565b826000806101000a81548173ffffffffffffffffffffffffffffffffffffffff021916908373ffffffffffffffffffffffffffffffffffffffff16021790555081600160006101000a81548173ffffffffffffffffffffffffffffffffffffffff021916908373ffffffffffffffffffffffffffffffffffffffff16021790555080600260006101000a81548173ffffffffffffffffffffffffffffffffffffffff021916908373ffffffffffffffffffffffffffffffffffffffff160217905550505050620001c8565b600080fd5b600073ffffffffffffffffffffffffffffffffffffffff82169050919050565b6000620001348262000107565b9050919050565b620001468162000127565b81146200015257600080fd5b50565b60008151905062000166816200013b565b92915050565b60008060006060848603121562000188576200018762000102565b5b6000620001988682870162000155565b9350506020620001ab8682870162000155565b9250506040620001be8682870162000155565b9150509250925092565b61113880620001d86000396000f3fe608060405234801561001057600080fd5b506004361061007d5760003560e01c806391dae5191161005b57806391dae519146100dc578063dd4670641461010c578063faa916d314610128578063fc0c546a146101445761007d565b806337e23222146100825780633a5381b5146100a05780638406c079146100be575b600080fd5b61008a610162565b60405161009791906109b9565b60405180910390f35b6100a8610168565b6040516100b59190610a15565b60405180910390f35b6100c661018e565b6040516100d39190610a15565b60405180910390f35b6100f660048036038101906100f19190610a66565b6101b4565b6040516101039190610aae565b60405180910390f35b61012660048036038101906101219190610a66565b6101d4565b005b610142600480360381019061013d9190610b5a565b610325565b005b61014c610666565b6040516101599190610c41565b60405180910390f35b60035481565b600160009054906101000a900473ffffffffffffffffffffffffffffffffffffffff1681565b600260009054906101000a900473ffffffffffffffffffffffffffffffffffffffff1681565b60046020528060005260406000206000915054906101000a900460ff1681565b60008111610217576040517f08c379a000000000000000000000000000000000000000000000000000000000815260040161020e90610cb9565b60405180910390fd5b6003600081548092919061022a90610d08565b919050555060008054906101000a900473ffffffffffffffffffffffffffffffffffffffff1673ffffffffffffffffffffffffffffffffffffffff166323b872dd3330846040518463ffffffff1660e01b815260040161028c93929190610d50565b6020604051808303816000875af11580156102ab573d6000803e3d6000fd5b505050506040513d601f19601f820116820180604052508101906102cf9190610db3565b503373ffffffffffffffffffffffffffffffffffffffff167fd4665e3049283582ba6f9eba07a5b3e12dab49e02da99e8927a47af5d134bea58260035460405161031a929190610de0565b60405180910390a250565b600260009054906101000a900473ffffffffffffffffffffffffffffffffffffffff1673ffffffffffffffffffffffffffffffffffffffff163373ffffffffffffffffffffffffffffffffffffffff16146103b5576040517f08c379a00000000000000000000000000000000000000000000000000000000081526004016103ac90610e55565b60405180910390fd5b6004600084815260200190815260200160002060009054906101000a900460ff1615610416576040517f08c379a000000000000000000000000000000000000000000000000000000000815260040161040d90610ec1565b60405180910390fd5b60008585853046604051602001610431959493929190610f4a565b60405160208183030381529060405280519060200120905060006104548261068a565b905060006104af85858080601f016020809104026020016040519081016040528093929190818152602001838380828437600081840152601f19601f82011690508083019250505050505050836106c090919063ffffffff16565b9050600160009054906101000a900473ffffffffffffffffffffffffffffffffffffffff1673ffffffffffffffffffffffffffffffffffffffff168173ffffffffffffffffffffffffffffffffffffffff1614610541576040517f08c379a000000000000000000000000000000000000000000000000000000000815260040161053890610ff5565b60405180910390fd5b60016004600088815260200190815260200160002060006101000a81548160ff02191690831515021790555060008054906101000a900473ffffffffffffffffffffffffffffffffffffffff1673ffffffffffffffffffffffffffffffffffffffff1663a9059cbb89896040518363ffffffff1660e01b81526004016105c8929190611015565b6020604051808303816000875af11580156105e7573d6000803e3d6000fd5b505050506040513d601f19601f8201168201806040525081019061060b9190610db3565b508773ffffffffffffffffffffffffffffffffffffffff167f82e416ba72d10e709b5de7ac16f5f49ff1d94f22d55bf582d353d3c313a1e8dd8888604051610654929190610de0565b60405180910390a25050505050505050565b60008054906101000a900473ffffffffffffffffffffffffffffffffffffffff1681565b60007f19457468657265756d205369676e6564204d6573736167653a0a33320000000060005281601c52603c6000209050919050565b6000806000806106d086866106ec565b9250925092506106e08282610748565b82935050505092915050565b600080600060418451036107315760008060006020870151925060408701519150606087015160001a9050610723888285856108ac565b955095509550505050610741565b60006002855160001b9250925092505b9250925092565b6000600381111561075c5761075b61103e565b5b82600381111561076f5761076e61103e565b5b03156108a857600160038111156107895761078861103e565b5b82600381111561079c5761079b61103e565b5b036107d3576040517ff645eedf00000000000000000000000000000000000000000000000000000000815260040160405180910390fd5b600260038111156107e7576107e661103e565b5b8260038111156107fa576107f961103e565b5b0361083f578060001c6040517ffce698f700000000000000000000000000000000000000000000000000000000815260040161083691906109b9565b60405180910390fd5b6003808111156108525761085161103e565b5b8260038111156108655761086461103e565b5b036108a757806040517fd78bce0c00000000000000000000000000000000000000000000000000000000815260040161089e9190611086565b60405180910390fd5b5b5050565b60008060007f7fffffffffffffffffffffffffffffff5d576e7357a4501ddfe92f46681b20a08460001c11156108ec576000600385925092509250610996565b60006001888888886040516000815260200160405260405161091194939291906110bd565b6020604051602081039080840390855afa158015610933573d6000803e3d6000fd5b505050602060405103519050600073ffffffffffffffffffffffffffffffffffffffff168173ffffffffffffffffffffffffffffffffffffffff160361098757600060016000801b93509350935050610996565b8060008060001b935093509350505b9450945094915050565b6000819050919050565b6109b3816109a0565b82525050565b60006020820190506109ce60008301846109aa565b92915050565b600073ffffffffffffffffffffffffffffffffffffffff82169050919050565b60006109ff826109d4565b9050919050565b610a0f816109f4565b82525050565b6000602082019050610a2a6000830184610a06565b92915050565b600080fd5b600080fd5b610a43816109a0565b8114610a4e57600080fd5b50565b600081359050610a6081610a3a565b92915050565b600060208284031215610a7c57610a7b610a30565b5b6000610a8a84828501610a51565b91505092915050565b60008115159050919050565b610aa881610a93565b82525050565b6000602082019050610ac36000830184610a9f565b92915050565b610ad2816109f4565b8114610add57600080fd5b50565b600081359050610aef81610ac9565b92915050565b600080fd5b600080fd5b600080fd5b60008083601f840112610b1a57610b19610af5565b5b8235905067ffffffffffffffff811115610b3757610b36610afa565b5b602083019150836001820283011115610b5357610b52610aff565b5b9250929050565b600080600080600060808688031215610b7657610b75610a30565b5b6000610b8488828901610ae0565b9550506020610b9588828901610a51565b9450506040610ba688828901610a51565b935050606086013567ffffffffffffffff811115610bc757610bc6610a35565b5b610bd388828901610b04565b92509250509295509295909350565b6000819050919050565b6000610c07610c02610bfd846109d4565b610be2565b6109d4565b9050919050565b6000610c1982610bec565b9050919050565b6000610c2b82610c0e565b9050919050565b610c3b81610c20565b82525050565b6000602082019050610c566000830184610c32565b92915050565b600082825260208201905092915050565b7f496e76616c696420616d6f756e74000000000000000000000000000000000000600082015250565b6000610ca3600e83610c5c565b9150610cae82610c6d565b602082019050919050565b60006020820190508181036000830152610cd281610c96565b9050919050565b7f4e487b7100000000000000000000000000000000000000000000000000000000600052601160045260246000fd5b6000610d13826109a0565b91507fffffffffffffffffffffffffffffffffffffffffffffffffffffffffffffffff8203610d4557610d44610cd9565b5b600182019050919050565b6000606082019050610d656000830186610a06565b610d726020830185610a06565b610d7f60408301846109aa565b949350505050565b610d9081610a93565b8114610d9b57600080fd5b50565b600081519050610dad81610d87565b92915050565b600060208284031215610dc957610dc8610a30565b5b6000610dd784828501610d9e565b91505092915050565b6000604082019050610df560008301856109aa565b610e0260208301846109aa565b9392505050565b7f4e6f742072656c61796572000000000000000000000000000000000000000000600082015250565b6000610e3f600b83610c5c565b9150610e4a82610e09565b602082019050919050565b60006020820190508181036000830152610e6e81610e32565b9050919050565b7f4e6f6e636520616c726561647920757365640000000000000000000000000000600082015250565b6000610eab601283610c5c565b9150610eb682610e75565b602082019050919050565b60006020820190508181036000830152610eda81610e9e565b9050919050565b60008160601b9050919050565b6000610ef982610ee1565b9050919050565b6000610f0b82610eee565b9050919050565b610f23610f1e826109f4565b610f00565b82525050565b6000819050919050565b610f44610f3f826109a0565b610f29565b82525050565b6000610f568288610f12565b601482019150610f668287610f33565b602082019150610f768286610f33565b602082019150610f868285610f12565b601482019150610f968284610f33565b6020820191508190509695505050505050565b7f496e76616c6964207369676e6174757265000000000000000000000000000000600082015250565b6000610fdf601183610c5c565b9150610fea82610fa9565b602082019050919050565b6000602082019050818103600083015261100e81610fd2565b9050919050565b600060408201905061102a6000830185610a06565b61103760208301846109aa565b9392505050565b7f4e487b7100000000000000000000000000000000000000000000000000000000600052602160045260246000fd5b6000819050919050565b6110808161106d565b82525050565b600060208201905061109b6000830184611077565b92915050565b600060ff82169050919050565b6110b7816110a1565b82525050565b60006080820190506110d26000830187611077565b6110df60208301866110ae565b6110ec6040830185611077565b6110f96060830184611077565b9594505050505056fea264697066735822122031af423416d71bc0c2fb2810cde4e99cbaa06e4784ccf5f1000187dda853da6664736f6c63430008140033",
  "linkReferences": {},
  "deployedLinkReferences": {}
}