{
  "_format": "hh-sol-artifact-1",
  "contractName": "BridgeB",
  "sourceName": "contracts/BridgeB.sol",
  "abi": [
    {
      "inputs": [
        {
          "internalType": "address",
          "name": "_token",
          "type": "address"
        },
        {
          "internalType": "address",
          "name": "_validator",
          "type": "address"
        },
        {
          "internalType": "address",
          "name": "_relayer",
          "type": "address"
        }
      ],
      "stateMutability": "nonpayable",
      "type": "constructor"
    },
    {
      "inputs": [],
      "name": "ECDSAInvalidSignature",
      "type": "error"
    },
    {
      "inputs": [
        {
          "internalType": "uint256",
          "name": "length",
          "type": "uint256"
        }
      ],
      "name": "ECDSAInvalidSignatureLength",
      "type": "error"
    },
    {
      "inputs": [
        {
          "internalType": "bytes32",
          "name": "s",
          "type": "bytes32"
        }
      ],
      "name": "ECDSAInvalidSignatureS",
      "type": "error"
    },
    {
      "anonymous": false,
      "inputs": [
        {
          "indexed": true,
          "internalType": "address",
          "name": "user",
          "type": "address"
        },
        {
          "indexed": false,
          "internalType": "uint256",
          "name": "amount",
          "type": "uint256"
        },
        {
          "indexed": false,
          "internalType": "uint256",
          "name": "nonce",
          "type": "uint256"
        }
      ],
      "name": "Burned",
      "type": "event"
    },
    {
      "anonymous": false,
      "inputs": [
        {
          "indexed": true,
          "internalType": "address",
          "name": "user",
          "type": "address"
        },
        {
          "indexed": false,
          "internalType": "uint256",
          "name": "amount",
          "type": "uint256"
        },
        {
          "indexed": false,
          "internalType": "uint256",
          "name": "nonce",
          "type": "uint256"
        }
      ],
      "name": "Minted",
      "type": "event"
    },
    {
      "inputs": [
        {
          "internalType": "uint256",
          "name": "amount",
          "type": "uint256"
        }
      ],
      "name": "burn",
      "outputs": [],
      "stateMutability": "nonpayable",
      "type": "function"
    },
    {
      "inputs": [],
      "name": "globalNonce",
      "outputs": [
        {
          "internalType": "uint256",
          "name": "",
          "type": "uint256"
        }
      ],
      "stateMutability": "view",
      "type": "function"
    },
    {
      "inputs": [
        {
          "internalType": "address",
          "name": "user",
          "type": "address"
        },
        {
          "internalType": "uint256",
          "name": "amount",
          "type": "uint256"
        },
        {
          "internalType": "uint256",
          "name": "nonce",
          "type": "uint256"
        },
        {
          "internalType": "bytes",
          "name": "signature",
          "type": "bytes"
        }
      ],
      "name": "mint",
      "outputs": [],
      "stateMutability": "nonpayable",
      "type": "function"
    },
    {
      "inputs": [
        {
          "internalType": "uint256",
          "name": "",
          "type": "uint256"
        }
      ],
      "name": "processedNonces",
      "outputs": [
        {
          "internalType": "bool",
          "name": "",
          "type": "bool"
        }
      ],
      "stateMutability": "view",
      "type": "function"
    },
    {
      "inputs": [],
      "name": "relayer",
      "outputs": [
        {
          "internalType": "address",
          "name": "",
          "type": "address"
        }
      ],
      "stateMutability": "view",
      "type": "function"
    },
    {
      "inputs": [],
      "name": "token",
      "outputs": [
        {
          "internalType": "contract IWrappedToken",
          "name": "",
          "type": "address"
        }
      ],
      "stateMutability": "view",
      "type": "function"
    },
    {
      "inputs": [],
      "name": "validator",
      "outputs": [
        {
          "internalType": "address",
          "name": "",
          "type": "address"
        }
      ],
      "stateMutability": "view",
      "type": "function"
    }
  ],
  "bytecode": "0x60806040523480156200001157600080fd5b506040516200125a3803806200125a83398181016040528101906200003791906200016c565b826000806101000a81548173ffffffffffffffffffffffffffffffffffffffff021916908373ffffffffffffffffffffffffffffffffffffffff16021790555081600160006101000a81548173ffffffffffffffffffffffffffffffffffffffff021916908373ffffffffffffffffffffffffffffffffffffffff16021790555080600260006101000a81548173ffffffffffffffffffffffffffffffffffffffff021916908373ffffffffffffffffffffffffffffffffffffffff160217905550505050620001c8565b600080fd5b600073ffffffffffffffffffffffffffffffffffffffff82169050919050565b6000620001348262000107565b9050919050565b620001468162000127565b81146200015257600080fd5b50565b60008151905062000166816200013b565b92915050565b60008060006060848603121562000188576200018762000102565b5b6000620001988682870162000155565b9350506020620001ab8682870162000155565b9250506040620001be8682870162000155565b9150509250925092565b61108280620001d86000396000f3fe608060405234801561001057600080fd5b506004361061007d5760003560e01c8063731133e91161005b578063731133e9146100da5780638406c079146100f657806391dae51914610114578063fc0c546a146101445761007d565b806337e23222146100825780633a5381b5146100a057806342966c68146100be575b600080fd5b61008a610162565b6040516100979190610993565b60405180910390f35b6100a8610168565b6040516100b591906109ef565b60405180910390f35b6100d860048036038101906100d39190610a40565b61018e565b005b6100f460048036038101906100ef9190610afe565b6102cb565b005b6100fe6105fa565b60405161010b91906109ef565b60405180910390f35b61012e60048036038101906101299190610a40565b610620565b60405161013b9190610ba1565b60405180910390f35b61014c610640565b6040516101599190610c1b565b60405180910390f35b60035481565b600160009054906101000a900473ffffffffffffffffffffffffffffffffffffffff1681565b600081116101d1576040517f08c379a00000000000000000000000000000000000000000000000000000000081526004016101c890610c93565b60405180910390fd5b600360008154809291906101e490610ce2565b919050555060008054906101000a900473ffffffffffffffffffffffffffffffffffffffff1673ffffffffffffffffffffffffffffffffffffffff16639dc29fac33836040518363ffffffff1660e01b8152600401610244929190610d2a565b600060405180830381600087803b15801561025e57600080fd5b505af1158015610272573d6000803e3d6000fd5b505050503373ffffffffffffffffffffffffffffffffffffffff167f23ff0e75edf108e3d0392d92e13e8c8a868ef19001bd49f9e94876dc46dff87f826003546040516102c0929190610d53565b60405180910390a250565b600260009054906101000a900473ffffffffffffffffffffffffffffffffffffffff1673ffffffffffffffffffffffffffffffffffffffff163373ffffffffffffffffffffffffffffffffffffffff161461035b576040517f08c379a000000000000000000000000000000000000000000000000000000000815260040161035290610dc8565b60405180910390fd5b6004600084815260200190815260200160002060009054906101000a900460ff16156103bc576040517f08c379a00000000000000000000000000000000000000000000000000000000081526004016103b390610e34565b60405180910390fd5b600085858530466040516020016103d7959493929190610ebd565b60405160208183030381529060405280519060200120905060006103fa82610664565b9050600061045585858080601f016020809104026020016040519081016040528093929190818152602001838380828437600081840152601f19601f820116905080830192505050505050508361069a90919063ffffffff16565b9050600160009054906101000a900473ffffffffffffffffffffffffffffffffffffffff1673ffffffffffffffffffffffffffffffffffffffff168173ffffffffffffffffffffffffffffffffffffffff16146104e7576040517f08c379a00000000000000000000000000000000000000000000000000000000081526004016104de90610f68565b60405180910390fd5b60016004600088815260200190815260200160002060006101000a81548160ff02191690831515021790555060008054906101000a900473ffffffffffffffffffffffffffffffffffffffff1673ffffffffffffffffffffffffffffffffffffffff166340c10f1989896040518363ffffffff1660e01b815260040161056e929190610d2a565b600060405180830381600087803b15801561058857600080fd5b505af115801561059c573d6000803e3d6000fd5b505050508773ffffffffffffffffffffffffffffffffffffffff167f25b428dfde728ccfaddad7e29e4ac23c24ed7fd1a6e3e3f91894a9a073f5dfff88886040516105e8929190610d53565b60405180910390a25050505050505050565b600260009054906101000a900473ffffffffffffffffffffffffffffffffffffffff1681565b60046020528060005260406000206000915054906101000a900460ff1681565b60008054906101000a900473ffffffffffffffffffffffffffffffffffffffff1681565b60007f19457468657265756d205369676e6564204d6573736167653a0a33320000000060005281601c52603c6000209050919050565b6000806000806106aa86866106c6565b9250925092506106ba8282610722565b82935050505092915050565b6000806000604184510361070b5760008060006020870151925060408701519150606087015160001a90506106fd88828585610886565b95509550955050505061071b565b60006002855160001b9250925092505b9250925092565b6000600381111561073657610735610f88565b5b82600381111561074957610748610f88565b5b0315610882576001600381111561076357610762610f88565b5b82600381111561077657610775610f88565b5b036107ad576040517ff645eedf00000000000000000000000000000000000000000000000000000000815260040160405180910390fd5b600260038111156107c1576107c0610f88565b5b8260038111156107d4576107d3610f88565b5b03610819578060001c6040517ffce698f70000000000000000000000000000000000000000000000000000000081526004016108109190610993565b60405180910390fd5b60038081111561082c5761082b610f88565b5b82600381111561083f5761083e610f88565b5b0361088157806040517fd78bce0c0000000000000000000000000000000000000000000000000000000081526004016108789190610fd0565b60405180910390fd5b5b5050565b60008060007f7fffffffffffffffffffffffffffffff5d576e7357a4501ddfe92f46681b20a08460001c11156108c6576000600385925092509250610970565b6000600188888888604051600081526020016040526040516108eb9493929190611007565b6020604051602081039080840390855afa15801561090d573d6000803e3d6000fd5b505050602060405103519050600073ffffffffffffffffffffffffffffffffffffffff168173ffffffffffffffffffffffffffffffffffffffff160361096157600060016000801b93509350935050610970565b8060008060001b935093509350505b9450945094915050565b6000819050919050565b61098d8161097a565b82525050565b60006020820190506109a86000830184610984565b92915050565b600073ffffffffffffffffffffffffffffffffffffffff82169050919050565b60006109d9826109ae565b9050919050565b6109e9816109ce565b82525050565b6000602082019050610a0460008301846109e0565b92915050565b600080fd5b600080fd5b610a1d8161097a565b8114610a2857600080fd5b50565b600081359050610a3a81610a14565b92915050565b600060208284031215610a5657610a55610a0a565b5b6000610a6484828501610a2b565b91505092915050565b610a76816109ce565b8114610a8157600080fd5b50565b600081359050610a9381610a6d565b92915050565b600080fd5b600080fd5b600080fd5b60008083601f840112610abe57610abd610a99565b5b8235905067ffffffffffffffff811115610adb57610ada610a9e565b5b602083019150836001820283011115610af757610af6610aa3565b5b9250929050565b600080600080600060808688031215610b1a57610b19610a0a565b5b6000610b2888828901610a84565b9550506020610b3988828901610a2b565b9450506040610b4a88828901610a2b565b935050606086013567ffffffffffffffff811115610b6b57610b6a610a0f565b5b610b7788828901610aa8565b92509250509295509295909350565b60008115159050919050565b610b9b81610b86565b82525050565b6000602082019050610bb66000830184610b92565b92915050565b6000819050919050565b6000610be1610bdc610bd7846109ae565b610bbc565b6109ae565b9050919050565b6000610bf382610bc6565b9050919050565b6000610c0582610be8565b9050919050565b610c1581610bfa565b82525050565b6000602082019050610c306000830184610c0c565b92915050565b600082825260208201905092915050565b7f496e76616c696420616d6f756e74000000000000000000000000000000000000600082015250565b6000610c7d600e83610c36565b9150610c8882610c47565b602082019050919050565b60006020820190508181036000830152610cac81610c70565b9050919050565b7f4e487b7100000000000000000000000000000000000000000000000000000000600052601160045260246000fd5b6000610ced8261097a565b91507fffffffffffffffffffffffffffffffffffffffffffffffffffffffffffffffff8203610d1f57610d1e610cb3565b5b600182019050919050565b6000604082019050610d3f60008301856109e0565b610d4c6020830184610984565b9392505050565b6000604082019050610d686000830185610984565b610d756020830184610984565b9392505050565b7f4e6f742072656c61796572000000000000000000000000000000000000000000600082015250565b6000610db2600b83610c36565b9150610dbd82610d7c565b602082019050919050565b60006020820190508181036000830152610de181610da5565b9050919050565b7f4e6f6e636520616c726561647920757365640000000000000000000000000000600082015250565b6000610e1e601283610c36565b9150610e2982610de8565b602082019050919050565b60006020820190508181036000830152610e4d81610e11565b9050919050565b60008160601b9050919050565b6000610e6c82610e54565b9050919050565b6000610e7e82610e61565b9050919050565b610e96610e91826109ce565b610e73565b82525050565b6000819050919050565b610eb7610eb28261097a565b610e9c565b82525050565b6000610ec98288610e85565b601482019150610ed98287610ea6565b602082019150610ee98286610ea6565b602082019150610ef98285610e85565b601482019150610f098284610ea6565b6020820191508190509695505050505050565b7f496e76616c6964207369676e6174757265000000000000000000000000000000600082015250565b6000610f52601183610c36565b9150610f5d82610f1c565b602082019050919050565b60006020820190508181036000830152610f8181610f45565b9050919050565b7f4e487b7100000000000000000000000000000000000000000000000000000000600052602160045260246000fd5b6000819050919050565b610fca81610fb7565b82525050565b6000602082019050610fe56000830184610fc1565b92915050565b600060ff82169050919050565b61100181610feb565b82525050565b600060808201905061101c6000830187610fc1565b6110296020830186610ff8565b6110366040830185610fc1565b6110436060830184610fc1565b9594505050505056fea26469706673582212202691afabd312c21df5adac4d407891eb22c8b4a4325532d7bd73b6577be0930764736f6c63430008140033",
  "linkReferences": {},
  "deployedLinkReferences": {}
}